:10000000FC7F0020290600001506000019060000EC
:1000100000000000000000000000000000000000E0
:100020000000000000000000000000001D060000AD
:10003000000000000000000021060000250600006E
:1000400010B5064C2378002B07D1054B002B02D0AE
:10005000044800E000BF0123237010BD58000020B9
:10006000000000002416000008B5084B002B03D048
:100070000748084900E000BF07480368002B03D089
:10008000064B002B00D0984708BDC046000000007A
:10009000241600005C000020540000200000000036
:1000A000F8B5041C03689A8B11072FD5998B082289
:1000B0000A439A8380229A72112080214900585461
:1000C00040200621FF315854822149005A54144AD5
:1000D0005768144E3740C025AD052F435760576908
:1000E0003E4035435561104D1560104D1561566801
:1000F0000F4D35408026B602354355605568AD0B2F
:10010000AD03556058540023237106E00822FF32E6
:100110009B5CDA0601D500F023FB2079F8BDC046D0
:100120008C010020FFFFFF8F8C0000200C010020BD
:10013000FF3F00F00160002303714371034B8360B4
:100140000A78022313430B707047C046A1000000D9
:1001500010B5394BD96920220A43DA61374B58224E
:10016000995C0120014399543C22995C0F24A143DE
:1001700099549C5C06212143995459215C5C20438D
:100180005854985C0F2101409954985C60210143B8
:1001900099542B4A2B4B5A801A1C53785BB2002B74
:1001A000FBDB294B197801220A431A70191C012222
:1001B0008B781A42FCD1254B1B689B03DB0E1F2B4F
:1001C00000D10523204A9901108D214B03400B4398
:1001D00013851E4B1B685B02DB0E1F2B00D11D23FA
:1001E000194A118D1F2081430B431385174B1A6841
:1001F0009201520F072A00D10322134B1103188DCD
:10020000144A02400A431A851A787F210A401A705C
:10021000197804220A431A700F4858621A890C216F
:100220008A431A811A8901218A431A810021802276
:1002300001F095F810BDC0460004004000440041A4
:1002400006400000000C0040005000412460800087
:100250003FF8FFFFFF8FFFFF8C010020F0B54746FE
:1002600080B4041C171C1D1C1E1C5B01274AD318DC
:1002700010335B685B005B0F033301229A40BA4284
:1002800008D86B01214AD31858698022120602430C
:100290005A610BE02A1C531E9A4192011C4BD21842
:1002A0009046101C3A1C01F051F841466B01174A68
:1002B000D218131C1161B904890C5269920B920374
:1002C0000A435A615969134A0A405A612B1C083380
:1002D0005B01E318DA7903210A4002210A43D97944
:1002E000032081430A43DA715979802252420A433A
:1002F0005A710836760103250221A319DB792B40B8
:100300001942FAD0381C04BC9046F0BD8C01002084
:100310000C010020FF3F00F038B5041C151C1F4BDA
:100320001B78002B13D11E4B1E4A1A645A6C920B79
:1003300092035A64586C1C4A02405A64A2235B0020
:10034000E05C40220243E2540122144B1A7048231D
:10035000FF33E35CDA071ED5114B5B6C9B049B0CEF
:10036000AB4203D20E4B5D6CAD04AD0C081C0D49C5
:100370002A1C00F0EBFF4823FF33E25C03210A4014
:1003800001210A43E15C032081430A43E254002235
:10039000024B1A7000E00025281C38BD74000020B4
:1003A0008C010020CC000020FF3F00F0002908D085
:1003B0000623FF33C25C30218A4320210A43C25402
:1003C00007E00623FF33C25C30218A4310210A4331
:1003D000C254704710B5104B5A69920B92035A6180
:1003E0000823FF33C25C03210A4002210A43C15C97
:1003F0000324A1430A43C2540623FF33C15C802275
:1004000052420A43C2540824FF3403210222035DEE
:100410000B401A42FBD010BD8C01002080235B42B0
:100420001943C9B28172704770B50322A0235B00E3
:10043000C254134B5C6C134A1440C02189050C4311
:100440005C6440244625FF3544550F4D1D6430261D
:1004500090256D0046555D6B1540294359638021F9
:1004600092256D004155094D1D63B0256D00445521
:100470005C6F22405A67B2235B00C15470BDC04616
:100480008C010020FFFFFF8FCC0000204C010020DA
:10049000134B144A9A61996902220A439A61191C02
:1004A0000422CB681A42FCD001220F4B1A700121A2
:1004B0001A780A4203D05A7852B2002AF8DB012295
:1004C000094B9A601A1C53785BB2002BFBDB074A7E
:1004D000054B5A601A1C53785BB2002BFBDB70474C
:1004E000000800400A071200000C0040010401004F
:1004F00010B58023DB01184380B2244B58801A1CAE
:1005000053785BB2002BFBDB214B9A8C80218A4312
:100510009A84191C1022CB681A42FCD01D4B196812
:100520001D4B18681A4B800E80029C6A1B4A2240A1
:1005300002439A628905890D9A6A920A92020A43D5
:100540009A62174ADA62191C1022CB681A42FCD050
:100550000F4B998C134A0A439A84191C1022CB68BA
:100560001A42FCD00A4B998C02220A439A841A1C24
:1005700080214020D3681942FCD0D3681842F9D0BA
:1005800003491022CB681A42FCD010BD000C004079
:10059000000800402860800024608000FF03FFFF07
:1005A000B8053F1C040A00000022084B9A601A1C80
:1005B00053785BB2002BFBDB054A044B5A601A1CD4
:1005C00053785BB2002BFBDB7047C046000C004049
:1005D0000007030010B50D4B5A681E218A43022103
:1005E0000A435A600A4CA26908231343A361FFF728
:1005F0004FFF80204000FFF77BFFFFF7D5FF002370
:1006000023726372A372E37210BDC04600400041C2
:10061000000400400EBEFEE70DBEFEE705BEFEE78D
:1006200002BEFEE701BEFEE710B5184B184A9A421B
:1006300016D0131C174A9A4212D0144B144A9A42ED
:100640000ED2154B11480330C01A800801308000CB
:100650000023111C0F4AD458CC5004338342FAD1E2
:100660000E4B0F4A9A420DD00CD20E4B0B49033160
:10067000C91A890801318900043BC918002204C342
:100680008B42FCD100F010F8FEE7C0465800002075
:100690000000002028160000040000209002002026
:1006A000580000205C00002070B53823234AD35C3A
:1006B000DA0703D50022224B1A6012E0204B1A6899
:1006C000204B9A4203D100221D4B1A601DE01D4AA7
:1006D0001B4B1A601C4B013B002BFCD10022184B1A
:1006E0001A601A4B1A68531C0FD0194B19490B602A
:1006F000043BFF210B4208D182F30888FF22934379
:10070000154A9360114B5B681847FFF763FF62B6A9
:1007100000F058FA041C0126104D201CA2689047D6
:10072000002801D00D4B1E702B78002BF5D0002037
:1007300000F0CAFA00F02AFBFCE7C04600040040C3
:10074000FC7F00203581730748E80100002000008D
:10075000042000000C02002000ED00E075000020E5
:10076000F8B5071C04680823FF33E15C10220A4334
:10077000E254AF4B1978AF4A11705978AE4D2970D9
:100780009878AE4908800E88D878000230430880F7
:100790001979AB4E31803088597909020143318093
:1007A0009979A84E31803188DB791B020B43338065
:1007B000402182235B00E1542B781178C9B2A24B0F
:1007C00019702B7812781B021343A04A934200D170
:1007D000E7E026DC80225200934200D11FE1802214
:1007E0005200934209DC812B00D193E0822B00D18F
:1007F00098E0802B00D0D5E184E081225200934222
:1008000000D137E181225200934200DA0CE1C0228C
:100810009200934200D1BBE08D4A934200D1BCE0EC
:10082000C0E19022120193425BD0902212019342C8
:100830000DDCD022D20093421CD0882212019342B8
:1008400059D0A022D200934200D0ABE13FE0814AD0
:10085000934200D18CE104DC7F4A934200D1DEE078
:10086000A0E17E4A934200D186E17D4A934200D1C5
:1008700091E197E1714B1B881B0A012B0ED138685F
:10088000704B1B889BB21222122B02D86D4B1A8818
:1008900092B274490023FFF7E1FC87E1674B1B88A4
:1008A0001B0A022B0ED13868664B1B889BB2432271
:1008B000432B02D8634B1A8892B26B490023FFF78F
:1008C000CDFC73E1201C0121FFF770FD6EE1201CBF
:1008D000FFF780FD594B198889B23868FFF79EFDF4
:1008E00064E1564B1B883B71201CFFF773FD201CF5
:1008F000FFF79AFD5AE1391C01C901220023FFF7D5
:10090000ADFC53E1594900230B8038680222FFF700
:10091000A5FC4BE1554900230B8038680222FFF704
:100920009DFC43E10022514B1A80454B198850220F
:1009300011404F4A117019880F220A401A801B88F3
:100940009BB2032B1FD84A4B1B78002B0AD03C4B81
:100950001B8808335B01E418A2799206D20F434B3F
:100960001A8009E0364B1B8808335B01E418A27932
:10097000D206D20F3D4B1A8038683C490222002330
:10098000FFF76CFC12E1201C0121FFF70FFD0DE1C8
:10099000201C0121FFF70AFD08E1201CFFF71AFDCA
:1009A00004E1274B19887F229143C9B2304A117064
:1009B00019880F220A401A80204B1B889BB2002BFB
:1009C00028D11F4B1B889BB2002B23D01C4B1B88AC
:1009D0009BB2032B1ED8264B1B78002B0BD0184B39
:1009E0001B8808335B01E3185A7930218A432021A0
:1009F0000A435A710AE0124B1B8808335B01E31863
:100A00005A7930218A4310210A435A71201CFFF77A
:100A1000E1FCCBE0201C0121FFF7C8FCC6E0201C54
:100A20000121FFF7C3FCC1E0201CFFF7D3FCBDE0B0
:100A30008C0000207B0000207A000020760000203F
:100A4000780000207C0000208100002002030000CC
:100A50000103000021200000010B0000A121000083
:100A60002122000088130000000000207E000020EA
:100A7000800000204E4B19887F229143C9B24D4A15
:100A8000117019880F220A401A804B4B1B889BB2A9
:100A9000002B68D1464B1B889BB2002B63D0444B84
:100AA0001B889BB2032B5ED8424B1B78002B2BD0AC
:100AB0003F4B1B8808335B01E3189B799A064ED5A0
:100AC0003B4B1A8808325201A21811793020814319
:100AD0002020014311711B8808335B01E318DB7987
:100AE0005A063CD5324B1A8808325201A218D079E6
:100AF0006021884340210143D1711B8808335B0189
:100B0000E31802221A712AE0294B1B8808335B0183
:100B1000E3189B79DA0622D5254B1A880832520150
:100B2000A2181179302081431020014311711B88D4
:100B300008335B01E318DB799A0610D51C4B1A8841
:100B400008325201A218D079602188432021014344
:100B5000D1711B8808335B01E31801221A71201C34
:100B6000FFF738FC22E0201C0121FFF71FFC1DE0ED
:100B7000201CFFF72FFC19E03868104B1B889BB234
:100B80000822082B02D80D4B1A8892B20C49002378
:100B9000FFF764FB0AE0084B1B887B71201CFFF702
:100BA00019FC03E0201C0121FFF700FCF8BDC04642
:100BB0007800002080000020760000207C000020CB
:100BC0004400002010B5054C054B2360FFF7C0FA28
:100BD000201C2168FFF7AEFA201C10BD1002002077
:100BE0000050004100B583B00190054B186801A981
:100BF00001220123FFF732FB012003B000BDC046F4
:100C00001002002010B582B0054B18686C460734FE
:100C1000211C0122FFF780FB207802B010BDC046E6
:100C20001002002008B50748FFF73AFA031C00201D
:100C3000002B06D0034B1A684823FF33D05C0123F6
:100C4000184008BD1002002010B5031C0C1C044AFB
:100C50001068191C221C0123FFF700FB201C10BD8B
:100C60001002002038B5051C0C1C0748FFF718FAC5
:100C70000023002806D0044B1868291C221CFFF70B
:100C80004BFB031C181C38BD10020020F8B5051CD6
:100C90000F1C0C48FFF704FA0023002810D0002F87
:100CA0000BD03C1C074E3068291C221CFFF734FB7C
:100CB000241A2D18002CF6D101E03B1C00E03B1C4F
:100CC000181CF8BD10020020002802D1014A024B76
:100CD0001A607047F813000080020020F0B585B05C
:100CE000214B1B78002B2FD0042901D1036830E061
:100CF000022901D103882CE003784D0004A8421991
:100D00000B3A002D29D10DE0341C1C40092C02D8CF
:100D10003C43147001E0373414701B09013A013070
:100D2000A842F1D301A83023037078234370013126
:100D300049000A23435445190D23EB700B4B1B68E4
:100D40000231DB6898470CE0084B1B68DB6898476A
:100D500007E04D0004A842190B3A00200F26302767
:100D6000D2E705B0F0BDC046880000208002002018
:100D700072B6EFF30883044A1360036883F30888AC
:100D8000436818477047C04684020020F0B55F46AC
:100D900056464D464446F0B48DB004A9C14A0B1CDA
:100DA00031CA31C391CA91C3A0CAA0C3BE4A9368D5
:100DB0005B035B0F9B005B58BC490B60926892B26F
:100DC000BB490A605343BB490B60BB4B00221A600E
:100DD0007A22BA4B1A70BA488346BA4C013401944D
:100DE000B94C5D462B681B69201C40219847B74BC6
:100DF0001860B74B1C600022B64B1A600028EFD079
:100E0000B34C27683B78FF2B00D149E2232B00D05D
:100E100017E2B14B1B78002B05D0A94B1B68DB6890
:100E2000AE4802219847A54B1B78532B3ED1A74BC8
:100E30001B68A84A1268934221D9A548016801316C
:100E400001600132A34802609A1AA54B18688242D9
:100E500002D2A44B1A6001E0A24B1860964B1868AE
:100E6000A04D2A6800F072FA2B689A4A1068191887
:100E70001160974A1568E91811609B4A1370954BE9
:100E80001A68013A1A60924B1A68013A1A60964B36
:100E90001B78934A11688B4206D2894A12688648A9
:100EA0000068C91A92699047C046B9E1522B08D12F
:100EB000834B1B68804A1068894A11685B699847B0
:100EC000AEE14F2B05D17C4B1B68854A12681A7026
:100ED000A6E1482B05D1784B1B68814A12681A801D
:100EE0009EE1572B05D1744B1B687D4A12681A602E
:100EF00096E16F2B05D1704B18680121FFF7EEFECC
:100F00008EE1682B08D176486B4B1B681B88036009
:100F10000221FFF7E3FE83E1772B08D1664B1B68C4
:100F20001B686F4803600421FFF7D8FE78E1472B68
:100F300013D16B4B1868FFF71BFF6C4B1B6883F3D7
:100F4000088862B66A4B1B78002B00D168E15C4BC5
:100F50001B681B680620984762E1542B09D10122C7
:100F60005D4B1A70564B1B68DB685C480221984742
:100F700056E14E2B0DD1584B1B78002B05D1504B11
:100F80001B68DB685548022198470022524B1A70B3
:100F900046E1562B58D14A4D2B68DB685548012154
:100FA00098472B68DB685448032198472B68534EB9
:100FB000DB68301C012198472B68DB6850480D2105
:100FC00098472B68DB68301C012198470022414B71
:100FD0001A603F4B019F1F603A4D2B78002B00D1C8
:100FE0006CE13C493A4A0B6801330B601368581CAA
:100FF00010601B78002BF6D1314E3368354DDB681D
:101000003048296898473368DB683C480121984795
:1010100000232B603B4A2E4B1A6060E10B680133C2
:101020000B601368581C10601B78002BF6D1244D00
:101030002B68284A1168DB68334898472B68DB68BF
:10104000264802219847EBE0582B1FD1244B186803
:10105000184B1B68984212D2134A2C4FBC460121F0
:10106000124E144D4308D36163461380137D194219
:10107000FCD03768BB00C0182B689842F2D3104BE5
:101080001B68DB68224803219847C9E0592B00D030
:101090008DE0134B1E68002E3ED1074B1A681D4B86
:1010A0001A607DE09C1300000040004138020020DF
:1010B000300200202C0200207C02002028020020A8
:1010C00080020020CC1300003C02002020020020FF
:1010D000240200203402002088000020C0130000F9
:1010E000880200208C0200201C02002084020020C4
:1010F00089000020C4130000BC130000C8130000C6
:1011000014140000D9130000D813000002A5FFFF3B
:10111000E413000084000020B608724B1D68724B77
:101120001F68724B5A6880218A435A60002E37D05C
:10113000191C01206E4A92460023994690466D4A3A
:101140000A800B7D1842FCD053461B68032B16D92E
:10115000002E16D04A464B460097B4462E1CB75870
:10116000009DAF50013347463F68BD08AB420AD2ED
:1011700004326345F3D1009F351C664606E04B46BA
:1011800004E04B4602E0009F351C66465A4A0A803E
:101190000A7D1042FCD09A00BF18AD18F61ACED1C5
:1011A000564B1B68DB6856480321984738E05A2B9A
:1011B00036D14D4B1F68534B1B68002B0CD03D1C88
:1011C000FF180026311C287800F0B4F8011C013506
:1011D000BD42F8D1061C00E00026484B1B68DB68C6
:1011E000494801219847311C6B460F336E4607363C
:1011F0000F252A1C0A400909101C3030092A00DD7D
:1012000007301870013BB342F3D13C4D2B68DB68CB
:1012100002A8082198472B68DB683C4803219847BF
:101220007A223B4B1A700022364B1A60394B1B78DE
:10123000002B35D0314B1B68DB68374801219847BC
:101240002EE01A1C303A092A06D82E4A303B15687F
:1012500029010B43136023E01A1C413A052A06D8E2
:10126000284A373B176839010B43136018E01A1CF2
:10127000613A052A06D8234A573B106801010B43FF
:1012800013600DE02C2B06D11E4B174A1968116014
:1012900000221A6004E01E4A13700022194B1A60E3
:1012A0001E4A1368013313601D4A11680131116031
:1012B0001C4A1268934200D2A3E591E50F4E3368B1
:1012C000164DDB681848296898473368DB6817486B
:1012D0000121984700232B60154A114B1A600F49D2
:1012E0000F4A9BE6840000207C0200200040004161
:1012F0003802002044A5FFFF04A5FFFF8002002064
:10130000E813000088020020EC130000F013000036
:101310002802002088000020F4130000340200207E
:101320002402002020020020CC130000C81300007B
:10133000D91300000B0A584040000902024BC05A62
:10134000484080B27047C0462414000010B5002306
:10135000934203D0CC5CC4540133F9E710BD031CA5
:101360008218934202D019700133FAE770470000E7
:10137000F8B5C046F8BC08BC9E467047F8B5C046F4
:10138000F8BC08BC9E4670471201000202000040F3
:10139000EB032461000200000001000008000000CF
:1013A000100000002000000040000000800000004D
:1013B000000100000002000000040000322E300096
:1013C0000A0D000076000000200000004175672033
:1013D000203920323031360032303A35353A313129
:1013E00000000000580A0D00590A0D005A000000C4
:1013F000230A0D003E000000E50B0000050C000074
:10140000250C0000490C0000650C0000490C000090
:101410008D0C00005B41726475696E6F3A58595AC1
:101420005D00000000002110422063308440A55080
:10143000C660E770088129914AA16BB18CC1ADD11A
:10144000CEE1EFF13112100273325222B5529442C2
:10145000F772D662399318837BB35AA3BDD39CC36A
:10146000FFF3DEE36224433420040114E664C7740E
:10147000A44485546AA54BB528850995EEE5CFF5BA
:10148000ACC58DD55336722611163006D776F66662
:101490009556B4465BB77AA719973887DFF7FEE70A
:1014A0009DD7BCC7C448E5588668A778400861182E
:1014B00002282338CCC9EDD98EE9AFF9488969995A
:1014C0000AA92BB9F55AD44AB77A966A711A500A02
:1014D000333A122AFDDBDCCBBFFB9EEB799B588BAA
:1014E0003BBB1AABA66C877CE44CC55C222C033C4E
:1014F000600C411CAEED8FFDECCDCDDD2AAD0BBDFA
:10150000688D499D977EB66ED55EF44E133E322EA1
:10151000511E700E9FFFBEEFDDDFFCCF1BBF3AAF49
:10152000599F788F8891A981CAB1EBA10CD12DC1A7
:101530004EF16FE18010A100C230E320045025403D
:1015400046706760B9839893FBA3DAB33DC31CD39D
:101550007FE35EF3B1029012F322D232354214528D
:1015600077625672EAB5CBA5A89589856EF54FE5E9
:101570002CD50DC5E234C324A014810466744764DD
:1015800024540544DBA7FAB79987B8975FE77EF73D
:101590001DC73CD7D326F2369106B016576676762D
:1015A000154634564CD96DC90EF92FE9C899E98909
:1015B0008AB9ABA94458654806782768C018E1087D
:1015C0008238A3287DCB5CDB3FEB1EFBF98BD89BDD
:1015D000BBAB9ABB754A545A376A167AF10AD01ACD
:1015E000B32A923A2EFD0FED6CDD4DCDAABD8BAD29
:1015F000E89DC98D267C076C645C454CA23C832C1D
:10160000E01CC10C1FEF3EFF5DCF7CDF9BAFBABF7C
:10161000D98FF89F176E367E554E745E932EB23E6C
:08162000D10EF01E00000000D5
:10162800090243000201008032090400000102029D
:10163800000005240010010424020005240600010E
:101648000524010001070583030800FF09040100C0
:10165800020A000000070581024000000705020297
:101668004000000000C201000000080069000000FE
:08167800410000000000000029
:0400000300000629CA
:00000001FF
